:020000040800F2
:1000000080170120510D0008A53C00083D0D000897
:100010003D0D00083D0D00083D0D000800000000EA
:10002000000000000000000000000000150E0008A5
:100030003D0D000800000000B10D0008612300081C
:10004000990F0008990F0008990F0008990F0008F0
:10005000990F0008990F0008990F0008990F0008E0
:10006000990F0008990F0008990F0008990F0008D0
:10007000990F0008990F0008990F0008990F0008C0
:10008000990F0008990F0008990F0008990F0008B0
:10009000990F0008990F0008990F0008990F0008A0
:1000A000990F0008990F0008990F0008990F000890
:1000B000990F0008990F0008990F0008990F000880
:1000C000990F0008990F0008990F0008990F000870
:1000D000990F0008990F0008990F0008990F000860
:1000E000990F0008990F0008990F0008990F000850
:1000F000990F0008990F0008990F0008990F000840
:10010000990F0008990F0008990F0008990F00082F
:10011000990F0008990F0008990F0008990F00081F
:10012000990F0008990F0008990F0008990F00080F
:10013000990F0008990F0008990F0008990F0008FF
:10014000990F0008990F0008990F0008990F0008EF
:10015000990F0008990F0008990F0008990F0008DF
:10016000990F0008990F0008990F0008990F0008CF
:10017000990F0008990F0008990F0008990F0008BF
:10018000990F0008990F0008990F0008990F0008AF
:10019000990F0008990F0008990F0008990F00089F
:1001A000990F0008990F0008990F0008990F00088F
:1001B000990F0008990F0008990F0008990F00087F
:0801C000990F0008990F0008D7
:1001C80053B94AB9002908BF00281CBF4FF0FF31B6
:1001D8004FF0FF3000F00CB8ADF1080C6DE904CE1B
:1001E80000F008F8DDF804E0DDE9022304B0704708
:1001F800704700BF2DE9F04786468C460846089EA2
:10020800154674461946002B40F0C2808542B2FA62
:1002180082F245D94AB1C2F1200300FA02FC2EFA53
:1002280003F3954043EA0C0C94404FEA154EA8B2EC
:10023800BCFBFEF8230C0EFB18CC08FB00F943EAC4
:100248000C43994528D9EB1808F1FF3704D2994592
:1002580002D9A8F102072B44A3EB0903A4B2B3FB0C
:10026800FEFC0EFB1C330CFB00F044EA0344A042E6
:1002780014D92C190CF1FF3304D2A04202D9ACF1E5
:1002880002032C44241A43EA07401EB1D440002339
:1002980034607360BDE8F0874746DDE76346F1E701
:1002A80092BB431B01214FEA154EAFB2B3FBFEFCD4
:1002B800200C0EFB1C330CFB07F840EA034398455F
:1002C80062D9EB180CF1FF3004D2984502D9ACF191
:1002D80002002B44A3EB0803A4B2B3FBFEFC0EFB05
:1002E8001C330CFB07F744EA0344A7424ED92C19E8
:1002F8000CF1FF3304D2A74202D9ACF102032C441B
:10030800E41B43EA0040C0E7C2F1200320FA03F1EE
:10031800954090402EFA03F303434FEA154EAFB2CF
:10032800B1FBFEFC0EFB1C10190C0CFB07F841EA94
:100338000041884504FA02F422D969180CF1FF300B
:1003480004D2884502D9ACF102002944A1EB080186
:100358009BB2B1FBFEFC0EFB1C110CFB07F743EA3A
:1003680001439F420ED9EB180CF1FF3104D29F4292
:1003780002D9ACF102012B44DB1B41EA004192E7B0
:100388006046E3E76146F7E76046A3E76346B7E7F9
:10039800834206D916B9002108467BE7C6E900E082
:1003A800F9E7B3FA83F78FB9834201D3724508D8C6
:1003B800BEEB020460EB030301209C461EB900213A
:1003C80068E73846FAE7C6E9004CF8E7C7F1200CB9
:1003D800BB4022FA0CF41C432EFA0CF120FA0CF361
:1003E800B84001434FEA14490EFA07F5B3FBF9F890
:1003F8001FFA84FE09FB18300B0C08FB0EFA43EABF
:1004080000439A4502FA07F240D9E31808F1FF3091
:1004180004D29A4502D9A8F102002344A3EB0A03A7
:1004280089B2B3FBF9F809FB183308FB0EFE41EA61
:1004380003418E452CD9611808F1FF3304D28E454B
:1004480002D9A8F10203214443EA0040A0FB029824
:10045800A1EB0E014145CE46434602D306D14D4598
:1004680004D2B9EB020E68EB04030138002EA6D0C3
:10047800B5EB0E0261EB030101FA0CFC22FA07F35B
:100488004CEA0303F940C6E9003198E74046C5E75E
:100498004346D9E700000000254B2DE9F04F87B00F
:1004A8001F68244E04AA0121B368304602935B6892
:1004B8009847002832DB204B4FF0FF39DFF87C806B
:1004C800DDE9044AA4FB03B203FB0A23584603935D
:1004D800039915A3D3E90023FFF772FED945039BBF
:1004E800054678EB030319D3A7FB04B407FB0A44BA
:1004F80058460DA3D3E900232146FFF761FED945ED
:10050800034678EB040409D3854207D3002201216E
:1005180030460092029A14682A46A04707B0BDE800
:10052800F08F00BFAFF3008000CA9A3B00000000C4
:1005380070030120504C0008002D3101FFC99A3B7F
:10054800014802F0D7BA00BF740301202DE9F34136
:10055800284EB468636C002B34D1636B002B38D100
:10056800244F254DDFF89480B468A36973B3012242
:100578000DF1070138469847012827D19DF8071043
:100588006368384698479DF807200D2A01D00A2A43
:1005980028D12A6800231A482B60835404F097F95D
:1005A800642804461AD808FB00F364221548B3FBF4
:1005B800F2F3154A136002F09DFA2146134803F03E
:1005C80057FBD1E7304698470028C6D102B0BDE8AE
:1005D800F081084898470028C2D1F7E70C4803F093
:1005E80047FBC1E72B68062B9FBF591C29600449AC
:1005F800CA54B9E7344C00086C030120002D3101BE
:100608003C050120740301207003012026530008D3
:100618003C530008044808B503F02AFB00214FF4B6
:100628007A7004F0B7F8F9E750530008F0B5354888
:10063800B1B003F01DFB344803F0DDFF00285ED0A5
:10064800324803F0D8FF002859D0314C204603F037
:10065800D2FF002853D026694FF48032A5680B21B9
:100668003368204623F4006333602B6898470028DA
:1006780045DBAF69002F42D033684FF0A0720B21E1
:10068800204613F4006F14BF4FF000734FF08063DF
:10069800B847002833DB1F491F4B4B604FF40063FA
:1006A8008B60EB6913B1012220469847164C1B4911
:1006B8001B4803F0D3FFA3682BB19B6C1BB100222E
:1006C800184920469847A3689B6A0BB10E4898477B
:1006D80000220023144908A8CDE906230023052297
:1006E800CDE90133CDE9032300934FF480620F4B2A
:1006F80002F0B2FA0021642004F04CF8FAE7002076
:1007080031B0F0BD6B530008344C0008504C000861
:100718001C4B00086003012049050008A1040008DB
:100728007403012055050008800501201D060008F6
:10073800014B1B68184700BF00000120014B1860DF
:10074800704700BF0000012030B585B004460D4653
:1007580010220021684604F0B2F802232A462146F6
:100768008DF802306846034B019302F0B9FF05B0DB
:1007780030BD00BF3907000880B505460E4617464C
:10078800984602F0ABFCDFF82090034604F016F917
:100798000446424649F8003039463046A84754F8DE
:1007A800090000F0EBFA00BF08000000034A00202F
:1007B800536823F002035360704700BF002004E031
:1007C800064B1A6842F400721A601A6842F4807282
:1007D8001A60034B034A1A60704700BF003C02408E
:1007E800480001200024F400014B036003207047F7
:1007F8003050000806480021064A08B5121A03F0CE
:1008080045FA0548054A0021121A03F03FFA08BDC7
:100818009000012048050120000000200000002071
:100828000A480B4A0B49121A08B503F031FA0A486C
:100838000A4A0B49121A03F02BFA0A480A4A0B49CA
:10084800121ABDE8084003F023BA00BF00000120D7
:100858008C0001206C5900080000012000000120D4
:100868006C5900080000002000000020F85900081A
:1008780038B505460C4699B11048D1E901230968F5
:1008880003F0F6F9E1680E48D4E9042303F0F0F91F
:10089800E1690C4803F0ECF9A1690B4803F0E8F9A9
:1008A800012D05D1EFF305810848103903F0E0F96F
:1008B80021462846BDE8384001F0B8BEB6530008C6
:1008C800E65300081654000826540008555400083A
:1008D80030BFFFF7FDBF00BF2DE9F0410B4E0546C5
:1008E800DFF82C80324606EB0807CC1B0949204666
:1008F80003F0D7FFA019083C4246002103F0DFFFB0
:1009080007F10800C5F89040BDE8F081000000003C
:100918000800000028500008054B5A699B689A4255
:1009280004D0044A536843F080535360704700BFB3
:100938000805012000ED00E02DE9F843324D80461E
:1009480032488946174603F093F9AB6ADE0622D58A
:1009580011242F4803F08CF9AB6A1D0703D5122424
:100968002C4803F085F9284DAB6A980715D52A4815
:1009780003F07EF96E6BAB6A190642D531462748FB
:1009880003F076F9B9F1000F03D0AB6A23F08003C6
:10099800AB62132403E01024DEE76FF015061A4D4E
:1009A800AB6ADA0703D514241D4803F061F9AB6A72
:1009B8009B0603D515241B4803F05AF9124B9A6A73
:1009C800D50602D49A6A90070AD55B68190507D537
:1009D8004146304600F092FA10B180F309880224AB
:1009E800094B9A6A920603D55A6A22F400525A624F
:1009F8009A6A204642F0FF029A6200233B70BDE8E3
:100A0800F8836FF01506C4E700ED00E069540008AC
:100A180080540008B4540008C8540008E154000881
:100A2800F85400081855000810B51D4C1D4803F06F
:100A38001FF9A36A990130D51B4803F019F91E2044
:100A4800A36ADA0103D5194803F012F91F20144CE0
:100A5800A36A1B0303D5164803F00AF92120A36AE9
:100A6800590303D5134803F003F922200C4CA36A59
:100A78009A0303D5104803F0FBF82320A36ADB038D
:100A880003D50E4803F0F4F82420054A936A6FEA68
:100A980003436FEA1343936210BD1D20D0E700BFE4
:100AA80000ED00E04855000861550008755500083C
:100AB80090550008AF550008D5550008F0550008B6
:100AC80070B5244C064624480D4603F0D1F8A36AB5
:100AD800D90435D5214803F0CBF81720A36A1A05A5
:100AE80003D51F4803F0C4F818201A4CA36A9B05C5
:100AF8000FD51C4803F0BCF8A16BA36A180407D5EE
:100B0800194803F0B5F81EB1A36A23F40043A362A1
:100B18001920104CA36A590503D5144803F0A8F806
:100B28001A20A36ADA050DD5114803F0A1F81B2095
:100B3800084A936A43F47F43936200232B7070BD85
:100B48001620CBE7A36A9B04F2D50A4803F090F875
:100B58001C20EDE700ED00E01C56000833560008A5
:100B6800B4540008455600085F560008755600083A
:100B780091560008185500085D4B2DE9F0415F6853
:100B88008AB004460025C7F3080685F31188BFF329
:100B98006F8F02F07F43B3F17F4F06D102F00C0351
:100BA800082B13D1534803F063F800252C464FF067
:100BB8000008F31E8DF80780092B00F28780DFE814
:100BC80003F00A7B7F7785858585858310074CBF71
:100BD8000C460125EBE7464E474803F049F88DF8E7
:100BE8000780F36A9A0704D5444803F041F80023C4
:100BF80030E0F36A002B01DA4148F6E7F36A5B005C
:100C0800F5D5404803F034F87369A26943F480735A
:100C18007361BFF34F8FBFF36F8F736932F8022C84
:100C280023F480737361BFF34F8FBFF36F8F4DF65B
:100C380002739A4209D0B36ADBB25BB30DF10702C3
:100C480001212046FFF778FE34E021682E4803F0A2
:100C58000FF823689DF80720CAB902AE04F12007EF
:100C68002068083454F8041C3246BC4203C21646B5
:100C7800F6D1099AB5B3C2F3080121B96FEA522235
:100C88006FEA4222099202A91846FFF7F1FD0AB05D
:100C9800BDE8F081B36A13F47F4F05D00DF1070169
:100CA8000120FFF70DFF05E0B36AB3F5803F9ED33F
:100CB800FFF7BAFE0346CDE70DF107020021C0E7B2
:100CC8000DF107010020ECE710488EE717F4F87FD4
:100CD8000F4B1049A6F1100218BF19460E4802F032
:100CE800C7FF84E722F4FF7222F00102CAE700BFBF
:100CF80000ED00E0D8560008045700081C5700080B
:100D08003E5700084D5700086D5700088A570008DD
:100D1800BF560008AA560008AF570008044B5A6986
:100D280042F010025A615A6922F008025A6170476B
:100D380000ED00E0EFF30880EFF3098101B572469A
:100D4800FFF71AFF01BD00BF0A4880F3088810208A
:100D580080F3118808484FF40461401880F309882B
:100D6800EFF314800221084380F31488BFF36F8FD8
:100D780000F090F880170120C0090120084B9B68FB
:100D880083420BD1EFF3058343B1064B5A6842F017
:100D980080525A605A6A22F400425A6202F0A4B998
:100DA8000805012000ED00E015498A684FF0300081
:100DB8001044EFF3098C80E8F01F102080F31288AC
:100DC800BFF36F8F0F4F4FF000664A698A603E602D
:100DD800D2F890000C4C2060D2F894000023C2F89E
:100DE800943080F3118804B5104600F0EFF8BDE8A0
:100DF800044002F1300090E8F01F8CF30988704736
:100E08000805012004ED00E0840301201EF0040F12
:100E18000CBFEFF30880EFF30980816911F8021C19
:100E28000229FFD001B5724602F034FF01BD00BFB0
:100E380040B2002807DB0123410900F01F00024AE5
:100E4800834042F82130704700E100E040B20131B0
:100E580000284FEA0111C9B206DB00F1604000F535
:100E6800614080F80013704700F00F00014B1954DF
:100E7800704700BF14ED00E0044B054A23F07F03E0
:100E88009360BFF34F8FBFF36F8F70470000000868
:100E980000ED00E008B5FFF7EFFF0B4AD2F8883005
:100EA80023F47003C2F88830EFF3148323F00403AB
:100EB80083F31488BFF36F8FFFF79CFCFFF7B0FC38
:100EC80000F05AF801F07EFC00ED00E042F8203C0A
:100ED800203A009B08495360019B21F0010193606F
:100EE800029B9161D3604FF08073D3610023026548
:100EF800C0F89430704700BF810700080A4A0346CB
:100F0800906878B113F1160FD0F8800005D0A0F1E1
:100F180040029A4205D8834203D2814228BF00206A
:100F280070470020704700BF0805012015460D4A8C
:100F38000E4608B50C4B9060D0F890201A6000F06F
:100F480045F82C4686F309880020044B984720462C
:100F5800002100220023024C20470000C13C000869
:100F6800810700080805012084030120014B102295
:100F78001A61704700ED00E0002304481021C218F0
:100F88000133622B82F80013F9D1704700E100E0C9
:100F980008B5EFF30583064A103B02EBC30152F88C
:100FA800330049688847BDE80840FFF7B5BC00BF73
:100FB8006C4C0008024B0121024A034800F078B843
:100FC800000005200000012060500008D0F88020B3
:100FD8004021054B403A18461A60044AC3E90112F9
:100FE800012100F06FB800BF8803012000000B1535
:100FF800084AC2F898000B6823F01F03034343F024
:101008001003C2F89C308B6843F00103C2F8A0308B
:10101800704700BF00ED00E02DE9F0430E4685B0B3
:101028001F4604464FF00009DFF85480B14523DA23
:101038006068D8B13FB1411E08421BD11F2819D999
:101048002368194216D12368019302F049FEA36868
:101058000343D0B20393D8F89050C5F30725013D58
:10106800A84207D801A9FFF7C3FF421C09F10109EB
:101078000C34DBE76FF01502104605B0BDE8F083CD
:1010880000ED00E0044B0522C3F89420BFF34F8F16
:10109800BFF36F8F704700BF00ED00E0BFF35F8FB5
:1010A800024B0022C3F89420704700BF00ED00E017
:1010B80010B5034C01232278FFF7AEFF207010BD56
:1010C800440501200B4A08B500231278FFF7A4FF56
:1010D80010F1160F07D0084A0021D2F89030C3F358
:1010E8000723984200DB08BDC2F898000130C2F817
:1010F800A010F2E74405012000ED00E05C4B2DE96B
:10110800F0435C4C85B0D3F890302568C3F30723CF
:101118009D4200F2A98000200C26FFF7BFFF854200
:101128001BD1554C6846554F2570FFF75DFB0025D0
:101138000646DFF83C81DFF84891AE4214D12378A7
:1011480000204B49D1F89020C2F307229342C0F205
:1011580085800020FFF796FF45E0616806FB0011D7
:10116800FFF746FF0130DAE700984FEA051C00EB6D
:101178000511CB683B40B3F5000F4DD00AD8B3F545
:10118800001F33D0B3F5800F3BD0B3F5801F13D0C9
:101198000135D2E7B3F1007F47D0B3F1805F4DD07E
:1011A800B3F1807FF4D150F80C30886802F098FDD4
:1011B8004A6840F0887009E050F80C30886802F0FE
:1011C8008FFD40F088504A6840F430200390207822
:1011D800CDE90123D8F89030C3F30723013B9842A7
:1011E80035D96FF0150005B0BDE8F08350F80C3024
:1011F800886802F075FD40F088504A6840F4002085
:10120800E4E750F80C30886802F06AFD40F0C060EE
:101218004A6840F40030D9E750F80C30886802F08A
:101228005FFD4A6840F08270D0E750F80C3088685B
:1012380002F056FD4A6840F48020C7E750F80C30A9
:10124800886802F04DFD4A6840EA0900BEE701A936
:10125800FFF7CEFE23780133237099E7C1F8983061
:101268000133C1F8A0006DE74FF0FF30BBE700BFC6
:1012780000ED00E06C500008440501200000F0FF7C
:101288000000021108B5024B1B689847002008BDF2
:1012980094030120034B044A1860937843F0020337
:1012A8009370704794030120040001200649074801
:1012B80021F00701C1F1005208B502F5A02202F0A1
:1012C80098FC002008BD00BF071C012098030120DE
:1012D80013B50C4C204603F08EF968B10A4A6B46E8
:1012E80092E80300A26883E8030012683AB119463D
:1012F8002046904702B010BD6FF01200FAE76FF079
:101308005700F7E7904A0008285000081F2809D816
:10131800012303FA00F0044B5B6998430CBF0120DA
:101328000020704700207047003C014000F01F0279
:1013380001231F2803FA02F303D8034A002053614C
:1013480070476FF015007047003C0140044B18448B
:101358000023013300F8012B9942FADC704700BFE3
:10136800580001202DE9F041054600260F4F4FF0A7
:101378000108F4B26B78A34201D8BDE8F0812B785C
:101388001C442046FFF7C2FF68B12046FFF7CEFF96
:1013980057F834303BB107EBC40204F01F0451681E
:1013A80008FA04F098470136E3E700BFA4030120D8
:1013B800034660B1B0FA80F2C2F11F02D2B2054909
:1013C8008856054A11680B431360FFF731BDFF22A9
:1013D800F5E700BF58000120003C0140024A1368AD
:1013E80023EA000313607047003C0140032921D819
:1013F800DFE801F0020C10190F4B9A6822EA00028C
:101408009A60DA6822EA0002DA6070470A4B9A6842
:101418000243F5E7084BDA680243DA609A6822EA81
:1014280000029A607047044B9A6802439A60DA682F
:101438001043D860704700BF003C014030B5B0B1E0
:10144800B0FA80F3C3F11F03DBB20B4850F8334006
:101458008C4204D100EBC3056D68954205D044B9B0
:1014680040F8331000EBC3004260002030BDFF237A
:10147800EBE76FF00F00F9E7A403012060B1B0FAC1
:1014880080F3C3F11F03DBB2044A002142F8331092
:1014980002EBC30251607047FF23F5E7A403012064
:1014A80000F003020F23043292009340074A43EAF4
:1014B8009000C3B2023352F82320030C93FAA3F32B
:1014C80002EA1040B3FA83F3D8407047003801406D
:1014D80038B5354B14460D4618680B888208C3F397
:1014E8000B03112B19D8FBB1013B102B1CD8DFE8DB
:1014F80003F00B1209125026301B24520B1B1B1B26
:101508001B3C46004FF4FA4020602B68B3F5805F1F
:1015180043D2002038BD0020F6E7382BF4D006D897
:1015280023F00403302BEFD06FF08500F2E7442B53
:101538000DD0A82BE8D0402BF6D11046E4E700F0F8
:10154800EFF81923B0FBF3F04FF4D8735843400871
:10155800DAE700F0E5F81923B0FBF3F04FF4D8739D
:1015680058430923B0FBF3F0CEE700F00DF9192337
:10157800B0FBF3F04FF4C07358430523F2E700F0D3
:1015880003F91923B0FBF3F04FF4C0735843282331
:10159800E8E70648B8E75000B6E7C3F3133301336A
:1015A800B0FBF3F02060B4E74800012040787D01EB
:1015B800112808D8054BC34013F0010F14BF0020B1
:1015C8006FF0850070476FF085007047EA0E0300E2
:1015D80070B54E4D00F0FEF84D4C284602F07FFCE9
:1015E80000F086FFA3684B4AC3F30313D35C20FAC9
:1015F80003F613781D41AE4202D2284600F0A6FF3A
:10160800236823F480232360236843F48033236012
:101618003F4B1A689103FCD55A6F42F001025A6792
:101628005A6F9207FCD59A6802F00C02082A17D163
:101638001A68940707D41A6842F001021A60344AFB
:1016480013689807FCD5324B9A6822F003029A6017
:101658009A6812F00C0FFBD19A6822F0F0029A6097
:101668002B4C236823F08073236023689901FCD4F2
:10167800294AD2F8043823F44033C2F80438D2F89F
:10168800043823F0706343F01063C2F8043800F0A4
:101698004BF8236843F0807323601D4C23689A013C
:1016A800FCD500F075F8236843F080532360236865
:1016B8009B00FCD5A36823F0F003A360A36823F084
:1016C800030343F00203A360114CA36803F00C0367
:1016D800082BFAD1AE4202D3284600F037FF0F4B51
:1016E80000200A4A1A60A36823F4E05343F4A05385
:1016F800A360A36823F4604343F40043A360D4F8D1
:101708008C3023F08073C4F88C3070BD00E6DF0C99
:1017180000380240FE58000800300240480001200E
:101728000048704740787D01114B12495A681140B2
:10173800114A0A4311495A605A681140104A0A432B
:101748005A601A6842F080721A60A3F5E4331A6886
:1017580042F480321A605A68D203FCD51A6842F4FF
:1017680000321A60074A53689B03FCD5704700BFD4
:10177800003802400080BCFF196C40000080BFF0B8
:10178800196C4009007000400048704740787D019E
:101798000E4A536823F4800323F03F0343F4800385
:1017A80043F0190353600A4BD2F888100B4043F0FA
:1017B800A04343F4C043C2F88830D2F88C3023F4F5
:1017C800403343F40033C2F88C307047003802408D
:1017D8003F80FF8F064B82B01A6C42F080521A6429
:1017E8001B6C03F080530193019B02B0704700BF4C
:1017F8000038024008B5074802F0FDFE38B1064837
:10180800FFF748FD0448FEF799FF002008BD6FF078
:101818001200FBE7344C0008251800080A2838B5E0
:101828000446074D04D1AB680D2128465B689847EC
:10183800AB68E1B202485B689847204638BD00BFF4
:10184800344C00082DE9F843D0F804801746D0F846
:1018580010900D46D8F808001E4602F09FFAB7F51A
:10186800001F044616D1D8F808402846FFF718FE8E
:1018780084420CD1294602F091FA0446FFF7AEFDE6
:101888002046FFF7FBFD00212046FFF7AFFD0020B3
:10189800BDE8F883B7F5800F20D0B6F1806F19D076
:1018A800B6F1C06F18D0B6F1007F1AD102264A46A9
:1018B8000F492046FFF7C2FDB0B9D8F808102846EE
:1018C80002F071FA20463146FFF790FD2046FFF7F7
:1018D8006FFDDCE70126EAE70326E8E76FF08500FD
:1018E800D6E76FF01500D3E76FF00F00D0E700BF21
:1018F8006941000838B50369044658600A4D28460E
:1019080002F079FE60B1AB6861681B680C3123B1E5
:101918002846984700EAE07038BD6FF05700F9E7AD
:101928006FF01200F8E700BF904A00082DE9F04771
:10193800044600EBC10600251C4FB44201D100202B
:1019480014E02068C30600F01F0911D4656845F04B
:101958002005C0F3481AC0F34420192823D857F8A3
:101968002080B8F1000F0DD16FF01200BDE8F087AC
:10197800B9F1100F04D0B9F1110FEAD16568E8E7A1
:101988003025E6E7404602F036FE0028ECD04B460C
:101998002A460AF00F01404602F0F8FB002804F13D
:1019A8000804CADAE2E76FF01500DFE768510008BB
:1019B8002DE9F0410C461946436804F1FF3CBDF897
:1019C80018701D68BCF1050F21D8B5F1804F06D0FD
:1019D8009948854203D0B2F5803F00F229819748A3
:1019E800032C50F82C6007F4807009D978B9344674
:1019F80082B92B6A23EA04032B620020BDE8F08138
:101A08000028F4D08E4850F82C40002CF0D16FF00C
:101A18001500F3E79B68002B40F0988002F1FF382F
:101A280007F00102B4F5807F4FEA420200F0AB8074
:101A380000F29E80102C00F0A88000F29580012C06
:101A480000F0A580042C08BF012018BF08207D4F96
:101A58002B6A385C022707FA00FE8240284623EAF0
:101A68000E0313432B62784B53F82C309847C5F874
:101A78002C802B6A34EA0303BFD0B6F5807F00F0D0
:101A88009B8000F28E80102E00F0988000F28580F6
:101A9800012E00F09580042E08BF012318BF0823EB
:101AA8006A4F05F118016A48B4F5807F17F803C03A
:101AB80010F803E0674B51F80C2003FA0EF322EA02
:101AC80003034FF0600202FA0EF243EA020341F800
:101AD8000C3000F08A807DD8102C00F0888075D8F2
:101AE800012C00F08680042C08BF012318BF0823AE
:101AF800DFF864C1B6F5807F6A681CF803C04FF44C
:101B0800807303FA0CF322EA03036B602B6A44EA3E
:101B180003042C622B6843F080032B607ED072D8BC
:101B2800102E7DD06BD8012E7CD0042E08BF012347
:101B380018BF0823FA5CC05C08238C5883402343F1
:101B48008B506B6943F001036B6156E7102B01D191
:101B5800013963E723F04000202801D0402B67D1EA
:101B680049084FEA52085BE7402C08BF03206CE79E
:101B7800B4F5805F0DD0B4F5803F0CD0B4F5806F1C
:101B880008BF052061E7042061E702205FE7002025
:101B98005DE706205BE7072059E7402E08BF0323CF
:101BA8007CE7B6F5805F0DD0B6F5803F0CD0B6F572
:101BB800806F08BF052371E7042371E73B466FE791
:101BC80000236DE706236BE7072369E7402C08BF6E
:101BD80003238BE7B4F5805F0DD0B4F5803F0CD0BC
:101BE800B4F5806F08BF052380E7042380E702234C
:101BF8007EE700237CE706237AE7072378E7402E71
:101C080008BF032394E7B6F5805F0DD0B6F5803F93
:101C18000CD0B6F5806F08BF052389E7042389E750
:101C2800022387E7002385E7062383E7072381E765
:101C38006FF08500E2E600BF000C00403852000853
:101C48002C520008B258000814520008C458000862
:101C5800BB58000873000100A95800082DE9F74394
:101C68004668D0F810803468564F384602F0C3FCF6
:101C7800002800F0A180D7F808903169D9F8003021
:101C88002BB96FF05705284603B0BDE8F0833846F6
:101C98009847051EF7DB7369012B40F29080316984
:101CA800D9F818300831002BEBD000223846984775
:101CB80005460028E7D13169D9F80C300831002BE6
:101CC800DFD06A463846984700280FDB009BD8E9E2
:101CD8000101C8F800308368DB6803B1984701AA9E
:101CE8000021B06902F06AFA002801DA0546CAE75D
:101CF800019B002219791868FFF718FE0028F5DB08
:101D080073680022A362304BE2629C4212D0B4F1A5
:101D1800804F29D0A3F57C439C4225D003F58063EE
:101D28009C4221D003F580639C421DD003F5784383
:101D38009C4224D12368B16823F070030B432360CD
:101D4800236823F4407323602263636CF26823F0F2
:101D5800FF0313436364636C43F4004363642368C1
:101D680043F0010323608EE72368B26823F0700311
:101D780013432360236823F44073236009E0134B63
:101D88009C42F7D0124B9C4209D11A6822F4407247
:101D98001A60F368002BE2D06FF0850573E70D4BEE
:101DA8009C42E7D00C4B9C42E4D00C4B9C42E1D0C7
:101DB8000B4B9C42EDD1DDE76FF0120563E76FF046
:101DC800150560E7904A0008000001400040014006
:101DD800004401400048014000180040001C004039
:101DE8000020004043681B6803F1080252E8002FF6
:101DF80042F0010203F1080040E800210029F3D174
:101E0800154A93421BD0A2F54C42934217D002F5D3
:101E18008062934213D002F5806293420FD002F59C
:101E2800806293420BD002F54442934207D0A2F558
:101E38001C42934203D002F58062934203D15A6850
:101E480042F040025A6053E8002F42F4807243E89F
:101E580000210029F7D170470010014043681B6832
:101E680003F1080252E8002F22F0010203F10800F2
:101E780040E800210029F3D1154A93421BD0A2F56E
:101E88004C42934217D002F58062934213D002F578
:101E9800806293420FD002F5806293420BD002F524
:101EA8004442934207D0A2F51C42934203D002F564
:101EB8008062934203D15A6822F040025A6053E884
:101EC800002F22F4807243E800210029F7D17047DF
:101ED80000100140F8B50C46036941681D68237974
:101EE800012B15D09F1E7E427E41B6026279022ADE
:101EF80096BF474F4FF4005737F81270A279022A5D
:101F080009D0042A31D0003B18BF01231B0306E087
:101F18004FF4C066EAE7B3FA83F35B091B07E2797B
:101F28000968012A14BF4FF0000C4FF4407CA54209
:101F38001ED10A6822F0805222F4B05232431A436A
:101F48000A604B6823F440533B434B6043681A686C
:101F5800936823F4407343EA0C039360296840684C
:101F680002F029FA00EAE070F8BD4FF48053D6E792
:101F7800D1F800E00EF4C06E764506D0D1F800E046
:101F88002EF4C06E4EEA06060E6041680E6871684F
:101F980001F440518F4204D0716821F44051394313
:101FA800716041680E68316801F010218B4204D0DD
:101FB800316821F010210B433360436819688B683E
:101FC80003F440739C4505D08B6823F4407343EABF
:101FD8000C038B6043681B689968490405D5032A7C
:101FE80009D09A6822F4804204E0032A03D19A684F
:101FF80042F480429A6021682B68994206D0406872
:1020080002F0D9F90028AFDB23682B600020ABE78A
:10201800205300082DE9F34147680646786802F026
:10202800EAFA20B96FF0120002B0BDE8F0817868D2
:10203800396983681B68002B00F09780984700284F
:10204800F2DB01AA0021786A02F0B8F80028EBDB7D
:10205800019B002219791868FFF768FC0028E3DB68
:10206800756833692C68D3F80080236823F001036E
:102078002360A86802F0BFFA0028D3D0D5E902018E
:102088008368DB6803B1984754E8003F43F00C03CA
:1020980044E80032002AF7D141463046FFF71AFFDC
:1020A800002802DA6FF01500BEE72B7E1BB1A3688B
:1020B80043F00803A3606B7E1BB1636843F40043DD
:1020C8006360AB7E1BB1636843F480336360EB7E6F
:1020D8001BB1636843F4003363602B7F002B38D057
:1020E800234B9C421BD0A3F54C439C4217D003F5CD
:1020F80080639C4213D003F580639C420FD003F5A4
:1021080080639C420BD003F544439C4207D0A3F55F
:102118001C439C4203D003F580639C42C2D1736880
:102128001A68936843F48043936023686A7F23F0B6
:10213800787343EA425323602368AA7F23F4F81391
:1021480043EA02432360EB7F1BB1A36843F40043D7
:10215800A360236843F001032360E3699B02FCD575
:102168003046BB6A984700205EE76FF057005BE790
:1021780000100140F8B5436802460E4691F805E0A4
:102188001C68036908791D6801288B7913D1BEF191
:10219800020F69D9022B1F464FF4C0614FF4005C4F
:1021A8007AD0042B73D000287BD0C31E012B70D8A3
:1021B8006FF08500F8BD02280AD1BEF1020F5FD981
:1021C800022B1F464FF480610BD04FF4005CE8E708
:1021D800BEF1020F57D9022B1F4656D100286BD0EB
:1021E8000021C31E012BE3D90020022703237345D6
:1021F800DED102F04AF8B842DAD1F37903B3012B01
:1022080062D1334B9C421BD0A3F54C439C4217D060
:1022180003F580639C4213D003F580639C420FD082
:1022280003F580639C420BD003F544439C4207D0DE
:10223800A3F51C439C4203D003F580639C42B7D1AD
:1022480023683146104623F001032360FFF742FE5E
:102258000028ADDB236843F00103236096E8030000
:1022680085E803000020A5E74FF4C061194F022B51
:1022780037F81EC01F4694D170B94FF0805010E057
:102288004FF48061F2E70021F0E700219DE7002884
:102298008ED14FF4805004E0C31E012B88D9022749
:1022A8000020BCF5805F0BD0BCF5405F0AD0BCF1C4
:1022B800000F9BD101239AE701464FF0805095E724
:1022C800002394E7022392E7032B9AD070E700BF1C
:1022D80000100140205300084FF0E0230F4910B5CB
:1022E8009C691A6908689B6902F480320C4934B900
:1022F80093B903464AB90A681044C01A10BD002BA6
:1023080008BF03460AB9A342F5D90A6802440A601D
:102318004FF0E0221269EEE70446F3E704050120D6
:1023280000050120094B1022002083F8232045F2E4
:102338006042074B1A6045F25F42064B18604FF047
:10234800E0235A61072298611A61704700ED00E0A6
:102358000405012000050120684620F007018D468C
:1023680019B5FFF7B9FF1149114B0868D3E90042C5
:10237800001942F10002C3E900020E4A00230B6073
:1023880045F26043D2E90041001BB0FBF3F0434340
:102398001B1941F10001C2E9003101F097F8FEF77D
:1023A800BBFABDE819408546704700BF000501200B
:1023B80098000120900001202DE9F041DFF8E0802D
:1023C80099B1421C0BD14FF0E022136923F00103AD
:1023D80013614FF07F43C8F80030BDE8F081D8F8AA
:1023E8000060012807DC00270BE0431CD8F80060D8
:1023F800F7D140F20730B0F5427FA8BF4FF44270E2
:10240800471EEFF31185102383F31288BFF36F8FF4
:10241800FFF762FF234C4FF0E0239969D4E90023CA
:1024280080184FF0000243F10003C4E900031E4B7B
:102438001A601E4B1A68831A2ED445F2604C0CFBA6
:10244800073303F5A8435F33B3FBFCF7131A40F2D5
:1024580046520CFB0733934238BF1346144A934243
:1024680028BF1346C8F800304FF0E022013B9069BE
:102478005361002381429361A1EB0003D4E9001268
:1024880038BF9B195B1842F10002C4E9003285F39A
:102498001188BFF36F8FA0E740F24653E2E700BF11
:1024A800040501209800012000050120900001206A
:1024B800A06EFF0038B5EFF31185102383F312885F
:1024C800BFF36F8F084B1C68084B1B68E41AFFF7B3
:1024D80003FF85F31188BFF36F8F45F260432044F3
:1024E800B0FBF3F038BD00BF980001209000012038
:1024F800134908B58B6803F00C03042B1BD0082B79
:102508001BD14A684B68496802F03F0213F4800304
:10251800C1F388111ABF0B4800230B48A1FB000127
:10252800FDF74EFE064B5B68C3F3014301335B00C6
:10253800B0FBF3F008BD0348FCE70348FAE700BF27
:102548000038024040787D010024F40000285DD066
:102558002F4B1A681B6802F44042B2F5404F33D142
:1025680013F4803310D102F10F6202F58C529042BD
:1025780048D8284A904247D8274A904235D8274A0F
:10258800904209D902230DE0254B984238D8234BB5
:1025980098424FF0060305D8224A904202D9012BEF
:1025A80038BF012320490A6822F00F021A430A6043
:1025B8000A6802F00F02934202D00A6802F00F0282
:1025C800981A18BF0120704703F44043B3F5004F31
:1025D80005D103F10F6303F5A343984212D80D4BBD
:1025E800984211D80C4B984201D90323DAE70B4BD8
:1025F8009842C7D80B4B984294BF00230123D1E7D8
:102608000723CFE70523CDE70423CBE70120704755
:1026180000700040000E2707804A5D05008793037D
:102628008058840C80C3C901003C024038B5EFF3E0
:102638001185102383F31288BFF36F8F064B9C68B4
:1026480001F0ECFF85F31188BFF36F8F2046BDE8DA
:102658003840FEF793BB00BF0805012038B50A4B88
:1026680053F82040013053F82050A54200D838BD17
:10267800606830B1037EDB0701D401F0A4FF0834A1
:10268800F3E723689847FAE7FC5200082A4B01222F
:10269800032070B5294C86B0294D1A70FFF7DEFF6C
:1026A80000F08CFF0420FFF7D9FF26463034AE42F5
:1026B80010D3224C00F01EFC224EAC4226D300F070
:1026C8002DFCFDF7B3FF204A137B23F0010313739E
:1026D80006B070BD54F80C3C059354F8103C0493B4
:1026E80054F8143C039354F8183C029354F81C3CD7
:1026F800019354F8203C009354E90A2354E90C014F
:1027080000F04EFA54F8303C5E65CEE7D4E90A236F
:10271800B3F1FF3F08BFB2F1FF3F05D052EA030112
:10272800206803D100F0B6FC3034C6E731461830D3
:1027380000F03CFEF8E700BF450501207C4F00088B
:102748007C4F0008954700084001012070B5A02380
:10275800164E86B0012203FB0066154B154D044644
:1027680005930F231449CDE9033200234FF4A072D7
:10277800CDE90133142303FB00554FF4C0700F4B10
:1027880000FB04113046009500F00AFA737B0C4AEE
:1027980023F00403EE602C7473734FF4046304FB9A
:1027A800033313446B6006B070BD00BFA000012066
:1027B8000E59000808050120001201202B460008C8
:1027C800C0090120BFB50020FFF748FF274B83F35E
:1027D8000888274C0025F023264F84F82230E57717
:1027E80025766576A57684F82050636A43F4E0235D
:1027F8006362FEF793FAFEF7B9FB4FF0FF33A3626B
:10280800E362FEF77BFC1C4CFEF7D4FB1B4800F090
:102818004FFAFDF7D5FF0120FFF720FF0220FFF751
:102828001DFF00F0AFFB164B012216495C612046E4
:10283800154B009505930523CDE90155CDE90332E4
:102848003B464FF4806200F0ABF9627B06462046B7
:1028580022F00402627301F06DFF2846FFF776FF4D
:102868003A4631462046FEF761FB00BF00120120C0
:1028780000ED00E09526000840010120E00101205C
:1028880008050120801301201359000870B5EFF3E3
:102898001186102383F31288BFF36F8F0468A04258
:1028A8001BD0D4B1002504F11800D4E9003213601C
:1028B8005A60637BA56023F00203C4E90055637383
:1028C80001F0C3FF2046C4F8985001F033FF3146A9
:1028D8000748BDE8704000F0E7BAD0E902329A42F2
:1028E80018BF0133836086F31188BFF36F8F70BD03
:1028F800460501202DE9FF41044610274E4EEFF30F
:10290800118887F31288BFF36F8FD4F8A450F5B9F4
:10291800022104F1BC0001F08FFE002868D004F108
:10292800B40500220121284601F055FF0028F8D1FE
:1029380000234FF0FF324146404802934FF0FF33E7
:10294800CDE9002304F1AC0200F06EFCD7E7D4F81F
:10295800A8202B689542C4F8A43008BFC4F8A83052
:10296800D4F8BC3043F00203C4F8BC30EB6823F061
:10297800040343F00103EB606B6888F31188BFF32D
:102988006F8F28469847EFF3118887F31288BFF3B3
:102998006F8FEB68D80623F0010236D4EA60EB6843
:1029A8009A0716D523F002033068EB6088B10368F4
:1029B800002170B14268954235D1036869BB7268DD
:1029C8003360824200D17360002340F8083BFFF770
:1029D8005DFFD4F8BC3023F00203C4F8BC3088F3A0
:1029E8001188BFF36F8FDB0589D400F0D3FA86E72F
:1029F800D4F8BC30D9069BD5C4F8BC0088F311883C
:102A0800BFF36F8F04B0BDE8F08123F01103EB60D2
:102A180005F11000FFF73AFFC1E70B6073688342C6
:102A280008BF7160D0E723B11A68014618461346FB
:102A3800BFE71A46F9E700BF28050120460501202F
:102A4800F8B5C36804460F469A07C3F340062DD469
:102A58005B071BD40B680BB983680B60E368DD0761
:102A680045BFA368022601263B603D68002D3CD087
:102A78001F4B9A68D5F8A0309A420AD0D5F8BC30D6
:102A8800D807C3F3800214D46FF0120600233B600A
:102A980025E001F00FFED5F8BC300028F0D1D907A9
:102AA800C3F3C002F0D552B15B0708D46FF00F062C
:102AB800ECE7002AFAD1C3F3C003002BF6D10023B8
:102AC8002360D5F8A83063B9C5E92944284601F040
:102AD800BEFDE36843F00403E3603B68A36030464F
:102AE800F8BD1C60C5F8A840F0E76FF01506CDE703
:102AF800080501200146014801F0CCBDA0020120D3
:102B0800F0B50446002089B0C4E9290004F1AC00FE
:102B18000E9DC4E92B0004F1B400C4E92D0055B39F
:102B28002879002840F2011008BF0120C4F8BC0031
:102B380000204FF0FF364FF0FF370094CDE9033007
:102B4800CDE901000D4B2046CDE9066700F084F879
:102B580055B1296811B1204600F012F86B791BB104
:102B6800237B43F001032373204600F093FAC4F853
:102B7800A04009B0F0BD0120D8E700BFFD2800083B
:102B880010B5044608B9054B9C681F2204F1600083
:102B980001F0A1FE002084F87F0010BD0805012087
:102BA8002DE9FF4707320E469846109922F0070292
:102BB80000F15803017304217F320446417306F182
:102BC800400A22F03F02119FC0E9163300233F2A32
:102BD800A2F1400983600F98E373A073C4E9063338
:102BE80005D883F31188BFF36F8F084602DFB51845
:102BF80020462946FDF770FE07300E9B314620F02F
:102C080007000026C4F888002D1A20462A46C4E981
:102C180020A902930D9B01930C9B00934346FEF75A
:102C280055F9666597B11F22394604F1600001F035
:102C380052FE84F87F60074B9B680BB1D3F88C3049
:102C48002846C4F88C3004B0BDE8F08784F860707A
:102C5800F1E700BF08050120F0B5002587B004465C
:102C68000595109D04950F9D03950E9D02950D9D4C
:102C780001950C9DDDE912760095FFF791FFB6F1FD
:102C8800FF3F08BFB7F1FF3F05D056EA070305D15C
:102C9800204600F0FFF9204607B0F0BD3A4633461B
:102CA80004F11800014900F081FBF4E7954700089A
:102CB80040F2011383810023C0E92033C0F88C302F
:102CC800014B9860704700BF080501200A4A6FF061
:102CD8000A019368C3F898100849C3F894004B6830
:102CE80043F080534B60002383F31188BFF36F8F49
:102CF8009368D3F8980070470805012000ED00E0BC
:102D080070B590F90D20437B002A36DBD90634D103
:102D18001B4C63F07F0322464373E16952F8183F66
:102D2800934207D1C0E900210860E06111E09942AF
:102D3800F8D01B68002BF5D090F90E5093F90E606F
:102D4800B542F4D0AE42F2DD5968C0E900310860FE
:102D58005860A569954200D005B9E568A3685A7B13
:102D6800D20604D1DA897F2A01D9AA6932B1AB42E5
:102D780002D0284600F09AFA656170BD6361FCE7ED
:102D88000805012038B590F90D200146437B002A3B
:102D980004DA03F07F03437301F092FC0D4D2A46D9
:102DA800AB6852F8184F944200D004B9EC688B42D3
:102DB80007D05A7BD20604D1DA897F2A01D9A269C1
:102DC8002AB1A34202D0204600F070FA23466B6174
:102DD80038BD00BF08050120B3F1FF3F08BFB2F1BD
:102DE800FF3F03D00249183000F0E0BA704700BF37
:102DF8009547000838B5194CA168E0690B6881420D
:102E080014BF1A46002249680B605960A368E1693B
:102E18002AB9134AC3E900210B60E3610CE093F976
:102E28000E0092F90E50A84214D0854212DD516866
:102E3800C3E900210B605360A569094B9D4200D08E
:102E480005B9E568A3689D4202D0284600F02EFA2D
:102E5800656138BD9142DCD01268D9E708050120C8
:102E680020050120F8B50E4B0C4611460D4A98680E
:102E7800DDE906671060EFF31182102282F31288F1
:102E8800BFF36F8F9D68284601F02CFC2846324618
:102E98003B46FFF7A1FF2046BDE8F840FFF716BF05
:102EA800080501203005012049B9EFF3058030B944
:102EB800054B5A699B689A4201D0FFF707BF81F317
:102EC8001188BFF36F8F704708050120034648B982
:102ED800EFF3058232B9064A51699268914201D0EE
:102EE800FFF7F4BE83F31188BFF36F8F704700BFFD
:102EF80008050120EFF31181102383F31288BFF333
:102F08006F8F054B9A68D37B013BD37381F311888C
:102F1800BFF36F8F704700BF0805012070B5EFF34E
:102F28001186102383F31288BFF36F8F144DAB689B
:102F3800DA7B0132DA732A4652F8184F944200D0ED
:102F480004B9EC685A7BD20604D1DA897F2A01D900
:102F5800A2692AB1A34202D0204600F0A7F923466D
:102F68006B6186F31188BFF36F8FEFF31180102325
:102F780083F31288BFF36F8FBDE87040FFF7A6BFD9
:102F880008050120024B03F11802C3E90622704725
:102F98000805012070B5EFF31186102383F312881A
:102FA800BFF36F8F1B4CA168E0690B68814214BFA7
:102FB8001A46002249680B605960A368E1692AB97A
:102FC800154AC3E900210B60E3610CE093F90E0098
:102FD80092F90E50A84218D0854216DD5168C3E90F
:102FE80000210B605360A5690B4B9D4200D005B9C9
:102FF800E568A3689D4202D0284600F057F930469C
:103008006561BDE87040FFF761BE8A42D8D012689A
:10301800D5E700BF0805012020050120F8B550EAD2
:10302800010306460C4603D1FFF7B4FF0020F8BDA4
:10303800EFF31187102383F31288BFF36F8F124DBC
:10304800124BA8681860FFF79DFEA8682346324611
:103058000F49183000F0AAF9AA6804463846537B8D
:1030680043F004035373FFF731FEAB68D3E90A2337
:10307800B3F1004F08BF002AD8D101F00EFC201A86
:1030880020EAE070D3E700BF0805012030050120E1
:103098009547000838B50446EFF31185102383F3EC
:1030A8001288BFF36F8F437B5B070FD5183001F091
:1030B800CCFB637B204623F004036373FFF720FEF9
:1030C80029460548BDE83840FFF7EEBE85F311886C
:1030D800BFF36F8F38BD00BF46050120014B9868CC
:1030E800704700BF080501202DE9F8430446077B17
:1030F800EFF31185102383F31288BFF36F8F437B9F
:10310800190705D585F31188BFF36F8FBDE8F883DC
:10311800D90943F008025DD14273A36813B1204670
:1031280001F0D6FA04F1180004F1580801F08DFBFB
:10313800A66DB04511D04FF0000976B1304601F0C8
:10314800C7FA06F1180001F080FB3046C6F89890DF
:10315800FFF7D6FDA66DB045EFD1DFF8C080D8F8EF
:1031680008309C423ED1EFF30589B9F1000918BF38
:103178004FF00109D8F81860294A964200D00EB9D4
:10318800D8F80C60B34202D0304600F08FF82046E1
:10319800C8F8146000F08DFDB9F1000F02D0214885
:1031A800FFF786FDD8F808309C4231D1EFF305834C
:1031B80073BB227BD20718D42846FFF787FDFB078D
:1031C800A4D5002383F31188BFF36F8F0423184617
:1031D80002DF9BE703F07F0343F00803437301F02A
:1031E8006FFA9AE74FF00009C4E785F31188BFF337
:1031F8006F8F83F31188BFF36F8F0423184602DFA4
:10320800EFF31180102383F31288BFF36F8FD4E795
:1032180085F31188BFF36F8FD1E700BF0805012040
:1032280020050120E0010120D3B5DDE90667089CEF
:10323800CDE90067FFF716FE1CB1034B9B681B69BD
:10324800236002B0D0BD00BF08050120427B0346C1
:1032580012F01F0210D10A4988420DD009490868A6
:1032680068B1D9897F2909D893F90E20064B1B68C4
:103278009A42B8BF00207047002070471046704738
:10328800A00001204C00012034050120044B01223C
:10329800C01A044BC0105843034B1A54704700BF60
:1032A80080020120ABAAAAAA460501200D4B70B5E1
:1032B8001E7CFFF7CBFF0C4D044606EB460305EBDF
:1032C800C305284601F0C1FA084B00229A553CB1C3
:1032D800621E28460649D317BDE8704000F066B85C
:1032E80070BD00BF080501208002012046050120AD
:1032F8009532000838B5EFF31185102383F312884F
:10330800BFF36F8F0F4B104A9C681068A04206D11C
:10331800FFF7CCFF85F31188BFF36F8F38BD00210D
:103328001B7C1160094AD35C002BF3D02046FFF7C1
:103338008DFF0028EED0637BDB0601D1FFF75AFD35
:103348002046E5E708050120300501204605012053
:10335800024B1868984208BF0020704750000120AF
:10336800034B1B680BB9FFF7A5B80020704700BFD7
:103378003805012030B570B10B4B5B6898420AD014
:10338800036843B1D3E90421D0E90445121941EB9C
:103398000501C3E90421D0E9003213605A60002313
:1033A800C0E9003330BD00BF50000120B3F1FF3F3A
:1033B80008BFB2F1FF3F2DE9F84F0446994615467C
:1033C8001F467AD08160EFF31188102383F31288A7
:1033D800BFF36F8FB9F1000FDFF8E4A020DBFFF730
:1033E800BFFF0135064649F100092D18DAE9002723
:1033F80049EBE0734FF00109C4E90453AD1843EBFE
:103408000707FFF7A5FFDFF8BCE00346DEF804A0D6
:10341800EBB9C4E900EACAF80040CEF8044028E055
:10342800DAE900126FF001035B1A4FF0FF3161EB2C
:1034380002025B1B62EB0902012B4FF0000972F1DB
:103448000001BCBF01230022C0E90432D9E7D3E957
:10345800041CD4E904208A4270EB0C0B24DA891A84
:103468005A686CEB0000C3E90410C4E90032146028
:103478005C60FFF76DFF84420ED1134B1B685BB98C
:10348800B9F1000F02D1FFF76BFF0646304601F095
:10349800C5F90021FEF790FF88F31188BFF36F8FFD
:1034A80028463946BDE8F88F521A60EB0C009A4559
:1034B800C4E90420ADD01B68AAE700252F46EFE732
:1034C8009802012050000120380501202DE9F0471D
:1034D800EFF31185102383F31288BFF36F8FDFF8A2
:1034E800A4900026DFF8A0800027C9F80000FFF7A5
:1034F8002FFFD9F80030D8E900ECD91750B1D0E93E
:103508000442A34271EB020A1CDAE41A62EB0102DC
:10351800C0E9044213EB0E034FF000044CEB010129
:103528002046C9F80040C8E9003101F077F9214682
:10353800FEF742FF85F31188BFF36F8FBDE8F047B0
:10354800FFF7D8BE14EB0E024CEBE473C0E9046736
:10355800C8E90023FFF70EFF85F31188BFF36F8FCB
:1035680083689847EFF31185102383F31288BFF31C
:103578006F8FD9F800301B1BC9F80030FFF7E8FE41
:10358800B7E700BF380501209802012010B5EFF316
:103598001184102383F31288BFF36F8FFFF7E0FEC7
:1035A800054A0346D2E90001181841EBE37184F398
:1035B8001188BFF36F8F10BD98020120014800F0F9
:1035C80057BB00BF18590008074B07B54FF4806276
:1035D800009306494FF0FF330548FFF791FA0020A2
:1035E80003B05DF804FB00BF14530008C0170120A6
:1035F800A0020120242A2DE9F041044601D8012A1D
:1036080049D101F0DBF9354B16221A5001B10C6093
:103618000020BDE8F08135462E4616F8010B20281B
:10362800F9D0A0F10907042F0346F4D92B2834D088
:103638002D2835D14FF0010C6B78AE1C302B36D1CC
:10364800307840F0200078282DD132F010002AD1AF
:1036580073783446102202360CF10047013F0020EF
:10366800B7FBF2FE02FB1E78392B82BF03F1FF3352
:1036780043F02003263B303B9A421FD9704502D8BD
:1036880019D1984517D24CF0020C3546344615F836
:10369800013B2E46E8E70546BEE74FF0000CCBE7B6
:1036A8004FF0000CCAE7002A08BF0822D4E7002A16
:1036B80008BF0A22D0E700FB0230E6E701B10C6040
:1036C8001CF0010F18BF40421CF0020FA1D001F0FE
:1036D80075F9024B22221A5038469AE70C0000006E
:1036E8002DE9F04F8DB043680293837815469A0709
:1036F800804640F10D8100240E78002E00F00A81EA
:10370800252E0BD04B1C03930134029B41463046B7
:1037180098470028C0F2F6800399EDE74E788B1C95
:10372800252E0393F0D00027B946BB46BBF11F0FE7
:1037380038D8A6F12003102B0AD8DFE803F02A09AD
:1037480009300909092109090928092D09091F0052
:10375800A6F13003092B33D92A2E37D11BF0400F9D
:1037680055F8043B40F08280002BA7BF4BF0200B9C
:103778009946C3F100094BF0280B01E04BF0010B0F
:10378800039B13F8016B0393002ECFD130E04BF06D
:10379800020B4BF0040BF3E74BF0080BF0E74BF090
:1037A800100BEDE7BBF17F0F19D8A6F13003092BF9
:1037B800D2D81BF0400F03D00A2101FB0737DFE7FF
:1037C8000A2101FB09394BF0200BD9E72E2E06D12F
:1037D8001BF0400F40F09E804BF0400BD0E76C2E62
:1037E80031D02BD8682E36D06A2E3CD04C2E3AD009
:1037F800002F46F02003B8BF2BF04002A3F165016B
:10380800BCBF1FFA82FB0027022901D9612B2FD1E7
:10381800073525F00705DFF8ACA2083507271BF0A8
:10382800080F66D00AEB070B56465E4563D1A4EB3A
:103838000A0A06EB0A02A9EB07096FE1742E9FD06A
:103848007A2E9DD0D4E71BF0800F18BF4BF4007B75
:103858004BF0800B94E71BF4807F18BF4BF4007B80
:103868004BF4807B8CE74BF4207B89E71F4687E786
:10387800A6F16301122900F2F080DFE811F01300CD
:103888004F00EE00EE00EE00EE004F00EE00EE00FE
:10389800EE00EE00EE00FE00E900EE00EE001B0078
:1038A800EE00AF0055F8043B8DF8183001270DF1F4
:1038B800180AB4E755F804AB834BBAF1000F08BFF8
:1038C8009A461BF0400F14BF39464FF0FF3150465F
:1038D80001F011F80746A2E7029B414620209847CD
:1038E80000280FDB013EB742F6D34C44A41BB14677
:1038F80098E74E46F7E716F8010B029B41469847B2
:10390800002892DA98F8023043F0040388F802306D
:103918004FF0FF3420460DB0BDE8F08F1BF0800F4C
:1039280034D01BF4007F2CD0073525F00705AA46B4
:1039380069685AF8080B2BF010050029ADB237DA80
:10394800404261EB410145F480650DF1180B0A23F3
:103958005A4600F0DCFFA0EB0B0301936B0662D51F
:10396800019B25F001019F4289B240F3A180002EFE
:1039780000F0998015F0100240F09C80BB460D467F
:1039880023E0AA465AF8040BC117D4E7AA461BF449
:10399800807F5AF8041B01D10846F5E71BF4007F25
:1039A80015BF48B208B241F3C01141F3C031C2E7B4
:1039B80050EA0103C9D11BF0400FC6D0002FC4D173
:1039C8002BF0110295B2BB46019740F2064115EA69
:1039D80001021CBF0BF1010B00222CE02BF010029E
:1039E8001FFA82FB0A231BF0800C49D01BF40071DC
:1039F8001DBF073525F00705AA46AA461ABF5AF87B
:103A0800080B69685AF8040B50EA010545D12BF0F8
:103A180016051BF0400FADB242D0002F40D12BF05D
:103A2800170295B2019715F0100248D0019B002E9D
:103A380042D103F1010B29075AD4EB0706D5D94522
:103A48006FDD0199A9EB0B035F18CB465B4649E094
:103A58004BF0100B10237826C5E7782B04D1C6F15C
:103A6800780343F01003BEE7029B414625209847A0
:103A78000028FFF647AF023447E608230026B2E7DE
:103A8800AA461BF480715AF8040BBDD01BF40071D0
:103A98001ABFC0B2614680B2B6E72BF0060295B2F3
:103AA8000DF1180B54E725F01105ADB2BB468CE7B4
:103AB8000D46B8E73B460D4603F1020BBBE7DDF8C0
:103AC80004B082E7635900085C590008CDE9043264
:103AD8004146029B202098470028FFF613AF049B1D
:103AE800059A01339945F1DCA4EB0B01CC189B46F0
:103AF8000AB3029B4146302098470028FFF602AFE0
:103B08008EB901342744019B391B994224DC1D4698
:103B18005DBB019AA9EB0B09224455461446914412
:103B280035E0019F92E7023441463046029B9847B0
:103B38000028E7DAE6E640F206410D42E2D015F049
:103B4800020F14BF2B20202015F4806F04F101040C
:103B5800414618BF2D20E9E7029B4146302098478F
:103B6800002804F10104CEDACCE606AB013D41465B
:103B7800585D029B98470028CADAC3E6029B414673
:103B880020209847002804F10104FFF6BBAEA9EBFA
:103B98000403002BF2DCBFE5704700EBC10040884E
:103BA80040087047F8B50346FFF7F7FFB0FA80F012
:103BB800CA000C468DB2C0F11F00171D063203EB78
:103BC800800CDCF8106056B9012101FA00F0D968C0
:103BD8000143D960CCF81040DD539D52F8BDF10087
:103BE8000431585AD85303EBC0009E52C5805D5229
:103BF800F4E7043A2DE9F041CC1D11444FF00008D8
:103C080024F0070421F007010E1B0460414604F16B
:103C18001000F708C4F80C80B7FA87F2A760C2F161
:103C28002405C2F12002AD009200073500F047FEDE
:103C3800A4F800802046ED086B0004EBC50243F0B1
:103C4800010363807B1B59005180A21924F8355069
:103C58002946A2F80280A35304EBC7035A8842F00E
:103C680001025A80BDE8F041FFF79CBF0020704771
:103C78000FB407B504A951F8040B0191FCF764FDD2
:103C880003B05DF804EB04B07047704700F017BE4E
:103C980000F007BE01460068FCF7EABD08B5FCF76E
:103CA80017FEBDE80840FCF737BE00210120FCF7ED
:103CB800DFBD6FF08500704761B662B680F311888A
:103CC800BFF36F8F704772B6002383F31188BFF379
:103CD8006F8FBFF34F8F30BF62B6BFF36F8F7047E0
:103CE800202809D9B0F1004F08D80138B0FA80F07F
:103CF800C0F11F0040007047082070473E20704701
:103D080008B5FDF7BFFA002008BD08B50622012155
:103D18000020FDF71BFB002206201146FDF796F850
:103D2800012107220846FDF711FB00220720114652
:103D3800FDF78CF8082201210220FDF707FB00227D
:103D480008201146FDF782F8092201210320FDF71A
:103D5800FDFA002209201146FDF778F80A22012110
:103D68000420FDF7F3FA00220A201146FDF76EF849
:103D7800052117220846FDF7E9FA00221720114607
:103D8800FDF764F8282206210A20FDF7DFFA002251
:103D980028201146FDF75AF8002008BD01F01F0140
:103DA80001208840704700F003020F23043292007C
:103DB800934043EA9000C3B2020C9B0092FAA2F22D
:103DC80003F18043B2FA82F203F59C33914010B5B7
:103DD8009C6824EA10400143996010BD0B8882B0AA
:103DE800C3F30B0303F57D62C2F30B02782A14D8E0
:103DF80003F18043486803F50E331A680243002034
:103E08001A600B88C3F30B0303F1804303F50E33E9
:103E18001B680193019B02B070476FF08500FAE7B9
:103E28000B88C3F30B0303F57D62C2F30B02782AF8
:103E38000AD803F180434968002003F50E331A6855
:103E480022EA01021A6070476FF08500704738B5A2
:103E58000888C0F30B00FDF7ABFB002822DB48689D
:103E6800FF281ED0C0F3415582B20123C0F304409D
:103E7800013502F18042AB4002F50E32013B146875
:103E8800834024EA0303136049688BB20A0EC1F326
:103E9800044103F180438A4003F50E331868024356
:103EA8001A60002038BD0888C0F30B0008B500F57B
:103EB8007D63C3F30B03782B0AD800F180404B686D
:103EC80000F50E300268934314BF0120022008BD9C
:103ED800FDF76EFB002814BF01200220F7E77047AA
:103EE800436800205B681B690B60704743685B6828
:103EF800586942400A40424000205A61704743686E
:103F080000205B68996170474368090400205B687A
:103F180099617047436800205B685A69514059614C
:103F2800704710B503699868F8B1884219D1DC6800
:103F38000868A142986000D1D860002008602AB1C2
:103F48009A680A60DA68996002B9D960002010E0BE
:103F5800814206D108682060D8688142EDD1DC60D2
:103F6800EBE7044600680028F2D1002AE8D16FF098
:103F7800150010BDF0B5446801201E46C2F3801339
:103F8800676888408B404FF0030E27EA000702F06D
:103F980030053B43202D90FAA0F7B7FA87F7636006
:103FA800D4F808C0C2F3C1134FEA4707C2F341224D
:103FB8000EFA07F72CEA070C90FAA0F7B7FA87F77A
:103FC8004FEA470703FA07F343EA0C03A36090FAA2
:103FD800A0F3B3FA83F3E7684FEA43030EFA03F357
:103FE80027EA030790FAA0F3B3FA83F34FEA4303EF
:103FF80002FA03F242EA0702E26016D107292BD837
:10400800226A90FAA0F32BB3B3FA83F39B000F2133
:1040180001FA03F322EA030290FAA0F3B3FA83F356
:104028009B0006FA03F31343236290FAA0F3B3FA52
:1040380083F3032190FAA0F05B00B0FA80F02268C5
:104048002D0901FA03F3400022EA030385401D43CA
:104058002560F0BD2B46D9E7030A616A93FAA3F2FB
:1040680082B1B2FA82F292000F2793FAA3F3B3FA5D
:1040780083F307FA02F29B0021EA02029E401643EC
:104088006662D2E72A46EEE712F4003CF8B5054628
:104098000C4613461DD0960714D550075DD55022FF
:1040A800D90611D542F4007203F4C061B1F5806FEE
:1040B80042D0B1F5C06F19D0B1F5007F18D142F0E8
:1040C800800215E01022EBE79F06EDD542F48062EE
:1040D800EAE7D60305D5D00605D4C2F3401292020A
:1040E800E2E73022E0E74FF40072DDE742F4C07205
:1040F80013F440372E6908D0306920FA04F1C90753
:104108005FBF0121A14001433161BCF1000F06D01E
:10411800180314D5696801234968A3408B610023FB
:1041280021466868FFF726FF27B9336923FA04F2A6
:10413800D2070CD40020F8BD42F48072D8E75903A6
:10414800EDD501212846A140FFF7DEFEE7E7012271
:10415800A24023EA02033361ECE76FF08500EAE747
:1041680070B50B468968054611B15E680C6801B9DF
:1041780070BD8A682A4002D04B68304698471CB107
:10418800236821461C46F2E72346FAE7F8B51F469E
:10419800044640680E461546FFF7ECFE112F07D17E
:1041A80001212B0501FA06F104D563685B68996162
:1041B8000020F8BD2046FFF7A7FEF9E730B50368F1
:1041C80013600579046804EBC504A34202D36FF0B9
:1041D800010030BD5C798C4201D00833F0E7002043
:1041E800F7E74163704781637047C16370470164B3
:1041F8007047836D1B0C1B040B4383657047C165B7
:10420800704741680369002049681B680131B3FBA6
:10421800F1F3C2E9003070474368C1F34B1001F075
:104228001F011B68C05801238B4003424FF0000058
:1042380014BF012300231370704710B54368C1F3FE
:104248004B1001F01F011A68012384588B40234347
:104258008350002010BD10B54368C1F34B140122F0
:1042680001F01F0118688A40235823EA02032350EB
:10427800002010BD38B504460D46FFF7DEFF29467D
:104288002046FFF7E8FF002038BDB0F5805F07D073
:10429800B0F1805F09D1002914BF012002207047C6
:1042A800002914BF032004207047002914BF0220EE
:1042B8000320704743681B68D869DA69C0F3C000F7
:1042C800D107DA6948BF40F002009207DA6948BFAF
:1042D80040F004005107DA6948BF40F02000D205D9
:1042E80004D54FF4807240F008001A62C10701D566
:1042F80008221A62820701D501221A62410701D5F4
:1043080002221A62820601D504221A6270474368A3
:104318001A6852E8003F43F0400342E800310029A0
:10432800F7D1704743681A6852E8003F23F040030A
:1043380042E800310029F7D1704743681A6852E80B
:10434800003F43F0200342E800310029F7D17047CD
:1043580043681A6852E8003F23F0200342E800311E
:104368000029F7D1704743681B68D869C0F340102B
:104378007047012070470369C3E901127047026959
:1043880053680BB19168184770470022252008B57B
:104398001146FCF75BFD2520BDE80840FCF748BD49
:1043A8000022472008B51146FCF750FD4720BDE81C
:1043B8000840FCF73DBD37B5034605680C4619B9FA
:1043C8006FF0150003B030BD406819698368DB6879
:1043D80093B101AA98470028F4DB2B6823F4004323
:1043E8002B60019B03EB5403B3FBF4F10F29E7D9CE
:1043F80089B20020E960E5E76FF05700E2E743681B
:104408001B68D869C0F38010704743681B68D86977
:1044180010F0800002D01868C0F38010704710B503
:10442800026904460B46126812680A6042681268FC
:10443800126802F4C062B2F5806F33D0A2F5C06092
:10444800424242411A7162681268526802F440524C
:10445800B2F5805F28D0B2F5405F27D0002A0CBFA4
:10446800012203225A71626812681068116800F00C
:10447800102001F4C061FFF708FF987162680020FE
:104488001268926802F44072A2F540714A424A41A9
:10449800DA7161680968896811F4804F18BF0322CE
:1044A800DA7110BD0222CDE70022DBE70222D9E74C
:1044B80038B543680C461B681868196800F0102066
:1044C80001F4C061FFF7E1FE04281AD0D86910F0A2
:1044D800800015D0EFF31181102080F31288BFF30C
:1044E8006F8F0020151A002D06DDDD692D0603D516
:1044F800255C01309D62F5E781F31188BFF36F8F6A
:1045080038BD6FF08500FBE710B5436810201B68C5
:10451800DA691206FCD5EFF3118280F31288BFF333
:104528006F8FDC69240604D482F31188BFF36F8F80
:10453800EEE7996282F31188BFF36F8F10BD43686D
:104548001B68DA69910602D51A68920607D4D869F9
:1045580010F0400004D01868C0F3801070470120A4
:10456800704738B543680C461B681868196800F02E
:10457800102001F4C061FFF788FE04280FD0002046
:104588000821151A002D0CDDDD69AD0609D55D6A17
:1045980025540130DD692D07F3D51962F1E76FF075
:1045A800850038BD43681B68DA69100701D5082201
:1045B8001A62DA69920603D55B6A00200B707047AD
:1045C8004FF0FF30704710B5436904463BB90020EF
:1045D800E2684042537843F00103537010BD984796
:1045E8000028F4D00028E368B8BF4042FF28A8BFDD
:1045F800FF201870ECE740B1C368587810F001004C
:104608001EBF1878B0FA80F040097047EFF31183A5
:10461800102383F31288BFF36F8FFEE708B5FFF707
:10462800F5FF102408B5EFF3118384F31288BFF364
:104638006F8FFFF748FBF6E7012302688B4022EAF9
:104648000303036022FA01F000F00100704720B173
:104658000022AC30114600F0BEB8704738B50446A9
:104668000D461022002100F02AF9656038BD13B507
:1046780001900846EFF31184102383F31288BFF3E7
:104688006F8F01A9FEF7DCF984F31188BFF36F8FF0
:1046980002B010BD10B5FFF7EAFF041E08DDEFF306
:1046A8001180102383F31288BFF36F8FFEF70EFC7F
:1046B800204610BDEFF30580003818BF0120704771
:1046C800D0E9003213605A600023C0E90033704714
:1046D80008B5FFF7F5FF437B23F00203437300237C
:1046E800836008BD38B504460D46FEF74BFB637B77
:1046F80043F002036373E5B1A5602B689D4209D1BD
:104708006B68C4E900531C606C6012E06A689A42E6
:10471800F6D01B68002BF3D094F90E2093F90E10F5
:104728008A42F3D09142F1DD5A68C4E9003214603C
:104738005C6038BD10B5EFF31184102383F3128841
:10474800BFF36F8FFEF7DCFA84F31188BFF36F8F26
:1047580010BD014610B5EFF31184102383F31288BE
:10476800BFF36F8F437B13F0280F0AD183680BB117
:10477800FFF7AEFF4B7B084623F004034B73FEF7AD
:10478800BFFA84F31188BFF36F8F10BD0121183869
:10479800FFF7DFBF38B504460D46FEF73FFC03467A
:1047A800B5F1FF3F08BFB4F1FF3F204612D013F127
:1047B80009004FEAE3714FF00A024FF0000341F19C
:1047C8000001FBF7FDFCB0F1004F71F1000128BFBB
:1047D8006FF0004038BD38B5EFF31185102383F32F
:1047E8001288BFF36F8F0468A04213D0A4B1C4F835
:1047F800981020462261FFF76BFF04F1180000F0C3
:1048080024F82046FEF77CFA012085F31188BFF3CF
:104818006F8F38BD0020F8E72046F6E708B5024656
:10482800FEF796FD70B1D0E904319B1A61EBE27294
:10483800B3F1004F72F1000104DA002AACBF184648
:10484800002008BD6FF00040FBE7024638B5EFF3E3
:104858001185102383F31288BFF36F8F0368CBB1E0
:10486800FEF776FD04461046FEF784FD00224FF061
:1048780000438442C0E9042306D1FEF771FDFFF727
:10488800CDFF0021FDF798FD002085F31188BFF3C7
:104898006F8F38BD6FF01500F7E708B5FEF776FEA5
:1048A80008BD0A44914200F1FF3300D1704710B5AA
:1048B80011F8014B03F8014F9142F9D110BD0244A0
:1048C8000346934200D1704703F8011BF9E70A2217
:1048D8000021FEF78FBE10B50139044632B111F838
:1048E800013F00F8013B013A002BF7D10021FFF707
:1048F800E6FF204610BD10B5024601448A42134621
:1049080003D01C780132002CF8D1181A10BDF0B56C
:10491800C3F137070446FFB203F01F031046082B04
:10492800E6B233D0102B3ED06508A40844EA81745F
:1049380045EAC1752D194FEA910242EB5102290946
:1049480041EA02716D1842EB1212290A41EA02612A
:104958006D1842EB1222290C41EA02416D1842EB14
:104968001242AD1842F10002EC0844EA4274D10840
:1049780004EB8402A6EB4205EDB2092D0CD90134F3
:10498800A5F10A0541F10001EDB212E0E40844EA9C
:10499800417406F00705C908303554EA010200F8E9
:1049A800015BBCD1F0BD240944EA017406F00F058F
:1049B8000909092D84BFED19EDB2EDE7014800683A
:0849C800704700008403012088
:0849D0002CB8FF7F010000007C
:1049D80000000000904A0008B50700080000000029
:1049E80000000000AC4A0008000000001C4B000852
:1049F80000000000C84A000800000000C44B00087E
:104A080000000000FC4B000800000000E44A000819
:104A180000000000E04B000800000000A84B000860
:104A2800000000008C4B000800000000704B0008DC
:104A380000000000544B000800000000384B00083C
:104A480000000000004B0008133D000800000000B3
:104A580000000000344C000800000000184C00085A
:104A6800FD170008000000002D23000800000000CA
:104A7800B512000800000000D13500080000000051
:084A880000000000504C000882
:104A9000FE57000800000000B84F00086A0001201F
:104AA00000000000D915000800000000CD580008E3
:104AB00050520008A84F00088400012000000000A8
:104AC0000000000000000000D257000800000000B5
:104AD000000000006800012000000000D91200085A
:104AE000000000000B5800088C5000087C4F0008A4
:104AF0006C00012024040120FD18000800000000C3
:104B000019580008A05000087C4F00086E000120D2
:104B100038040120FD180008000000002758000894
:104B2000B45000087C4F0008700001204C040120A4
:104B3000FD1800080000000035580008C8500008A3
:104B40007C4F00087200012060040120FD1800085D
:104B50000000000043580008DC5000087C4F0008AB
:104B60007400012074040120FD18000800000000FA
:104B700051580008F05000087C4F000876000120D2
:104B800088040120FD180008000000005F5800089C
:104B9000045100087C4F0008780001209C0401208B
:104BA000FD180008000000006D58000818510008AA
:104BB0007C4F00087A000120B0040120FD18000895
:104BC000000000007B5800082C5100087C4F0008B2
:104BD0007C000120C4040120FD1800080000000032
:104BE00089580008405100087C4F00087E000120D1
:104BF000D8040120FD1800080000000097580008A4
:104C0000545100087C4F000880000120EC04012072
:104C1000FD18000800000000DE580008545200088B
:104C2000D44F000886000120200001201D2000082C
:104C300000000000EE580008A8520008D44F0008F9
:104C400088000120340001201D2000080000000021
:104C5000A5580008D0510008A04F0008820001208C
:0C4C600014000120651C0008000000008A
:104C6C0000000000B33C000800000000B33C00084A
:104C7C0000000000B33C000800000000B33C00083A
:104C8C0000000000B33C000800000000B33C00082A
:104C9C00FC5700086D130008FA5700086D13000844
:104CAC00F85700086D130008F65700086D1300083C
:104CBC00F45700086D13000800000000B33C000816
:104CCC0000000000B33C000800000000B33C0008EA
:104CDC0000000000B33C000800000000B33C0008DA
:104CEC0000000000B33C000800000000B33C0008CA
:104CFC0000000000B33C000800000000B33C0008BA
:104D0C0000000000B33C000800000000B33C0008A9
:104D1C0000000000B33C0008F25700086D130008B7
:104D2C0000000000B33C000800000000B33C000889
:104D3C0000000000B33C000800000000B33C000879
:104D4C0000000000B33C000800000000B33C000869
:104D5C0000000000B33C000800000000B33C000859
:104D6C0000000000B33C000800000000B33C000849
:104D7C0000000000B33C000800000000B33C000839
:104D8C0000000000B33C0008344C000887430008C6
:104D9C0000000000B33C000800000000B33C000819
:104DAC00F05700086D13000800000000B33C000829
:104DBC0000000000B33C000800000000B33C0008F9
:104DCC0000000000B33C000800000000B33C0008E9
:104DDC0000000000B33C000800000000B33C0008D9
:104DEC0000000000B33C000800000000B33C0008C9
:104DFC0000000000B33C000800000000B33C0008B9
:104E0C0000000000B33C000800000000B33C0008A8
:104E1C0000000000B33C000800000000B33C000898
:104E2C0000000000B33C000800000000B33C000888
:104E3C0000000000B33C000800000000B33C000878
:104E4C0000000000B33C000800000000B33C000868
:104E5C0000000000B33C000800000000B33C000858
:104E6C0000000000B33C000800000000B33C000848
:104E7C0000000000B33C000800000000B33C000838
:104E8C0000000000B33C000800000000B33C000828
:104E9C0000000000B33C0008184C000887430008D1
:104EAC0000000000B33C000800000000B33C000808
:104EBC0000000000B33C000800000000B33C0008F8
:104ECC0000000000B33C000800000000B33C0008E8
:104EDC0000000000B33C000800000000B33C0008D8
:104EEC0000000000B33C000800000000B33C0008C8
:104EFC0000000000B33C000800000000B33C0008B8
:104F0C0000000000B33C000800000000B33C0008A7
:104F1C0000000000B33C000800000000B33C000897
:104F2C0000000000B33C000800000000B33C000887
:104F3C0000000000B33C000800000000B33C000877
:104F4C0000000000B33C000800000000B33C000867
:104F5C0000000000B33C000800000000B33C000857
:104F6C0000000000B33C000800000000B33C000847
:104F7C0091400008E93E0008F53E0008073F000894
:104F8C00113F00081D3F00084D1800082B3F00087A
:044F9C000000000011
:084FA000B91900080B420008DA
:104FA80021420008434200085F4200087D42000891
:104FB800E53D0008293E000800000000D91400085B
:0C4FC800AF3E000800000000573E00084B
:104FD400AD45000811450008BD4200087D210008C8
:104FE40027440008B94400086B450008174300082B
:104FF4002D430008134400084343000859430008A4
:10500400074400086F430008ED1D0008651E0008F2
:10501400474500087B4300087F4300080000000068
:045024000000000088
:1050280044000000004000007B530008000000908E
:10503800000000100000000297530008000000C0A4
:105048000000800000001000A65300080000009037
:105058000000000100000001000001200000000025
:1050680000000B0602000000745000080000000851
:10507800C35700082600020600000120CB5700088D
:1050880022000B11FFFF0000002802400A00000068
:105098003000000000040000FFFF00000024024070
:1050A800090000003000000000020000FFFF0000BF
:1050B800002002400800000030000000000100004D
:1050C800FFFF0000001C0240070000003000000045
:1050D80080000000FFFF00000018024006000000EA
:1050E8003000000040000000FFFF000000140240F4
:1050F800050000003000000020000000FFFF000055
:105108000010024004000000300000001000000001
:10511800FFFF0000000C0240030000003000000008
:1051280008000000FFFF0000000802400200000025
:105138003000000004000000FFFF000000040240EF
:10514800010000003000000002000000FFFF000026
:1051580000000240000000003000000001000000D4
:10516800FC4B0008E04B0008C44B0008A84B0008A3
:105178008C4B0008704B0008544B0008384B000853
:105188001C4B0008004B0008E44A0008000000001F
:105198000000000000000000000000000000000007
:1051A80000000000000000000000000000000000F7
:1051B80000000000000000000000000000000000E7
:1051C800000000000000000000040040102700005C
:1051D8000000000000000000EC5100080200000080
:1051E800FC51000840000000020000000A00000016
:1051F800FF00000004520008010000000C520008E3
:10520800010000008202000000000000EB410008DD
:10521800EF410008F3410008F7410008FB4100088E
:1052280007420008040000004000000000040000DD
:105238000100000010000000000100000010000044
:105248000000010000001000003802400014014076
:10525800904A0008AC4A0008850400008052000803
:105268000100000000000000000000000000000035
:1052780088520008A94300084400000020000000EC
:105288009052000801000000985200080200000037
:10529800C804000000020000E8040000000000004C
:1052A80000100140904A0008AC4A0008840400003D
:1052B800D4520008010000000000000000000000B7
:1052C80000000000DC52000893430008440000007E
:1052D80010000000E452000801000000EC52000831
:1052E800020000002701000000020000E7020000A1
:1052F80000000000D8490008D8490008704A000892
:10530800784A0008904A0008904A00085359000853
:10531800000100000000000000100000003064756B
:105328007479206379636C652073657420746F20C9
:1053380025640A00696E76616C6964206475747905
:10534800206379636C650A00456E74657220647524
:105358007479206379636C652028302D31303029C9
:105368003A0A0053797374656D20737461727465B9
:10537800640A006D656D6F72792D706C6163656884
:105388006F6C6465724039303030303030300073C3
:105398006472616D406330303030303030006D659C
:1053A8006D6F7279403930303030303030007230C3
:1053B8002F61313A2020307825303878202072311A
:1053C8002F61323A20203078253038782020723208
:1053D8002F61333A20203078253038780A0072332C
:1053E8002F61343A202030782530387820723132D5
:1053F8002F69703A2020307825303878207231347F
:105408002F6C723A20203078253038780A002078BE
:105418007073723A20203078253038780A00466157
:10542800756C74696E6720696E73747275637469DC
:105438006F6E206164647265737320287231352F32
:105448007063293A203078253038780A00556E681C
:10545800616E646C6564204952516E3A2025640A75
:10546800002A2A2A2A2A204D5055204641554C54B4
:10547800202A2A2A2A2A0A002020537461636B6989
:105488006E67206572726F722028636F6E7465781C
:10549800742061726561206D696768742062652097
:1054A8006E6F742076616C6964290A002020556E3D
:1054B800737461636B696E67206572726F720A003C
:1054C80020204461746120416363657373205669C9
:1054D8006F6C6174696F6E0A0020204D4D46415211
:1054E80020416464726573733A20307825780A0025
:1054F8002020496E737472756374696F6E204163FE
:10550800636573732056696F6C6174696F6E0A0006
:105518002020466C6F6174696E672D706F696E74B8
:10552800206C617A79207374617465207072657378
:105538006572766174696F6E206572726F720A00A7
:105548002A2A2A2A2A205553414745204641554CA4
:1055580054202A2A2A2A2A0A0020204469766973B4
:10556800696F6E206279207A65726F0A0020205573
:105578006E616C69676E6564206D656D6F72792008
:105588006163636573730A0020204E6F20636F7038
:10559800726F636573736F7220696E73747275636B
:1055A80074696F6E730A002020496C6C6567616CC2
:1055B800206C6F6164206F66204558435F524554E4
:1055C80055524E20696E746F2050430A00202049BE
:1055D8006C6C6567616C20757365206F66207468F4
:1055E8006520455053520A002020417474656D703F
:1055F8007420746F206578656375746520756E64B2
:105608006566696E656420696E7374727563746922
:105618006F6E0A002A2A2A2A2A2042555320464118
:10562800554C54202A2A2A2A2A0A00202053746119
:10563800636B696E67206572726F720A0020205072
:105648007265636973652064617461206275732093
:105658006572726F720A00202042464152204164EE
:1056680064726573733A20307825780A00202049DF
:105678006D70726563697365206461746120627519
:1056880073206572726F720A002020496E737472FB
:10569800756374696F6E20627573206572726F72BC
:1056A8000A00526573657276656420457863657093
:1056B80074696F6E20280053707572696F75732056
:1056C800696E746572727570742028495251200091
:1056D800535053454C20696E20746872656164208C
:1056E8006D6F646520646F6573206E6F7420696EDA
:1056F800646963617465205053500A002A2A2A2A73
:105708002A2048415244204641554C54202A2A2AEE
:105718002A2A0A002020427573206661756C74205D
:105728006F6E20766563746F72207461626C652099
:10573800726561640A002020446562756720657699
:10574800656E740A0020204661756C742065736369
:10575800616C6174696F6E20287365652062656C81
:105768006F77290A00415243485F455843455054D2
:10577800207769746820726561736F6E2025780AD6
:105788000A002A2A2A2A2A204465627567206D6F32
:105798006E69746F7220657863657074696F6E20C6
:1057A8002A2A2A2A2A0A002A2A2A2A2A202573206B
:1057B800256429202A2A2A2A2A0A00464C415348C5
:1057C8005F30005352414D5F3000696E74657272EC
:1057D8007570742D636F6E74726F6C6C6572403483
:1057E80030303133633030000A0605050401030107
:1057F80002010101000172636340343030323338F2
:105808003030006770696F403430303232383030B1
:10581800006770696F40343030323234303000679E
:1058280070696F4034303032323030300067706920
:105838006F403430303231633030006770696F4008
:105848003430303231383030006770696F4034306E
:10585800303231343030006770696F403430303264
:1058680031303030006770696F4034303032306327
:105878003030006770696F40343030323038303043
:10588800006770696F403430303230343030006730
:1058980070696F4034303032303030300070776D9E
:1058A8000000010203040506080A00020406080AAB
:1058B8000C10140000080000000800080000000098
:1058C8000404043C3C72657365742D636F6E7472D6
:1058D8006F6C6C65720073657269616C403430304E
:1058E80031313430300073657269616C4034303066
:1058F80031313030300000000000000000000102AB
:1059080003040607080969646C65006D61696E0027
:105918002A2A2A20426F6F74696E67205A65706858
:105928007972204F53206275696C642076342E3367
:105938002E302D333732382D673930616263383075
:105948003833646562202A2A2A0A00737973776FCC
:10595800726B7100286E756C6C29002A666C6F6119
:04596800742A00009D
:10596C00753C000800000000093D00080000000024
:10597C000000000000000000AC4A00080104000018
:10598C002C000120000000000000000000C20100FB
:10599C000001030040000120000000000000000096
:1059AC0000C20100000103000024F400C800000044
:1059BC005000012050000120FFFFFFFFFFFFFFFF01
:0859CC00FFFFFFFFFFFFFFFFDB
:1059D40000000000000000000000000000000000C3
:1059E40000000000000000000000000000000000B3
:0459F40000000000AF
:0459F80015E015E0C1
:0400000508000D5191
:00000001FF
